:020000040800F2
:10000000186100208502000891340008652D000861
:100010003133000835090008813F00080000000066
:10002000000000000000000000000000C501000802
:10003000B50A00080000000021020008FD38000891
:100040009F0200089F0200089F0200089F0200080C
:100050009F0200089F020008B70A00089F020008DC
:100060009F0200089F0200089F0200089F020008EC
:100070009F0200089F0200089F0200089F020008DC
:100080009F020008210A00089F0200085D0900087D
:100090003909000845090008510900089F020008B5
:1000A0009F020008C93900089F0200089F0200084B
:1000B0009F0200089F0200089F0200089F0200089C
:1000C0009F0200089F0200089F0200089F0200088C
:1000D0009F0200086D3F00089F0200089F02000871
:1000E0009F0200089F0200089F0200089F0200086C
:1000F0009F0200089F0200089F0200089F0200085C
:100100009F0200089F0200089F0200089F0200084B
:100110009F0200089F0200089F0200089F0200083B
:100120009F0200089F0200082D0A00089F02000895
:100130009F0200089F0200089F0200088D09000826
:100140006909000875090008810900089F02000874
:100150009F0200089F0200089F0200089F020008FB
:100160009F0200089F0200089F0200089F020008EB
:100170009F0200089F0200089F0200080000000084
:100180009F0200089F0200089F020008A93C000887
:100190009F0200089F0200089F0200089F020008BB
:1001A00000000000000000009F020008DFF810D0EF
:1001B00000F07CFB00480047E9410008AFF30080F5
:1001C000186100202C4B19680868B0E8F04F80F3E4
:1001D0000988BFF36F8F4FF0000080F311887047DC
:1001E0000000000008480068006880F308884FF0AD
:1001F000000080F3148862B661B6BFF34F8FBFF37F
:100200006F8F00DF00BF00BF08ED00E0DFF80C00DB
:10021000016841F470010160704700BF88ED00E0A3
:10022000EFF30980BFF36F8F134B1A681EF0100FA6
:1002300008BF20ED108A20E9F04F106009B44FF09C
:10024000500080F31188BFF34F8FBFF36F8F05F01D
:1002500015FB4FF0000080F3118809BC196808688D
:10026000B0E8F04F1EF0100F08BFB0EC108A80F31A
:100270000988BFF36F8F704720000020EFF30580DF
:10028000704700000648804706480047FEE7FEE743
:10029000FEE7FEE7FEE7FEE7FEE7FEE7FEE7FEE736
:1002A000B9390008AD0100082DE9F05F05460020CE
:1002B00092469B4688460646814640241BE02846D7
:1002C00041464746224600F03AFA53465A46C01A7B
:1002D000914110D311461846224600F021FA2D1AFA
:1002E00067EB01084F4622460120002100F018FA72
:1002F00017EB00094E41201EA4F10104DFDC484643
:1003000031462A464346BDE8F09F40EA01039B0779
:1003100003D009E008C9121F08C0042AFAD203E07A
:1003200011F8013B00F8013B521EF9D27047D2B2DE
:1003300001E000F8012B491EFBD270470022F6E7CE
:1003400010B513460A4604461946FFF7F0FF20464B
:1003500010BD2DE9FE4F804681EA0300C00F0C4618
:10036000009021F0004123F00045B8EB0200A941C4
:1003700005D24046214690461C460B46024623F0D5
:100380000040104347D0270DC7F30A00C3F30A51BA
:100390000290401A019040286BDAC3F3130040F436
:1003A000801B0098924620B10023D2EB030A63EB36
:1003B0000B0B01985946C0F14002504600F0B0F9CD
:1003C00006460D4650465946019A00F0C8F910EB12
:1003D00008006141002487EA115284EAE7731A4356
:1003E00040D0009A62B3019A012A4FEA075215DC05
:1003F000001B61EB02014FF0004202EA0752CDE917
:100400000042001C41F5801132462B4600F0FFF9F6
:1004100003B0BDE8F08F40462146F9E7001B61EBD1
:100420000201001C41F5801300185B412018A2F561
:10043000001747EB030140EAD570B6196D4111E092
:100440006D084FEA360645EAC0754FEA0752001BB1
:1004500061EB0201001C41F5801149084FEA3000B0
:100460000019514132462B4603B0BDE8F04F00F071
:10047000BFB90098012240000023D0EB020263EBD9
:10048000E073009821464FEAE074B8EB000061EB9E
:100490000401E9E783F000435BE781F0004158E79E
:1004A0002DE9FE4F81EA030404F0004421F00041ED
:1004B00000944FF0000B23F0004350EA01045ED09B
:1004C00052EA03045BD0C3F30A54C1F30A552C4427
:1004D000A4F2F3340194A0FB0254C1F3130141F4DC
:1004E0008011C3F3130343F4801301FB024400FBA8
:1004F000034E840A970A44EA815447EA8357A4FBCF
:10050000076802958D0A05FB07854FEA932C04FBCB
:100510000C542705029D4FEA065847EA1637B5EBFB
:1005200008056EEB070C870E920E47EA811742EA28
:100530008312A7FB0201B6EB0B0164EB00042B0D49
:1005400043EA0C335E1844EB1C50DA465146E7FB95
:100550000201C5F313044FEA0B3343EA14534FEA85
:100560000432019C43EA0603A4F10C040294009CAB
:10057000CDE900B400F04BF903B0BDE8F08F0020E6
:100580000146F9E72DE9F04D81EA030404F0004B40
:1005900021F0004514464FF0000A23F0004150EAD4
:1005A000050220D054EA01021DD0C5F30A570246C5
:1005B000C5F31303C1F31300C1F30A5640F48015C9
:1005C00043F48013A7EB0608101BD64608F2FD384B
:1005D00073EB050002D308F1010801E092185B41BA
:1005E000B8F1000F03DA00200146BDE8F08D0020CD
:1005F0004FF48011064684460EE0171B73EB050787
:1006000005D3121B63EB050306434CEA010C4908B2
:100610004FEA300092185B4150EA0107EDD152EAEF
:10062000030012D082EA040083EA0501084305D0E2
:10063000101BAB4106D20122002306E000224FF03E
:10064000004302E06FF0010253101AEB06004CEB7E
:10065000085110EB0A0041EB0B01BDE8F04D00F032
:10066000C7B80EB5C10F80EAE0700844CA07002180
:1006700040F233438DE80E000A460B4600F0C7F8FF
:1006800003B000BD70B5C1F30A5201F0004500246B
:10069000C1F3130140F2FF3341F480119A4201DAB1
:1006A000002070BD40F233439A42A2F2334203DC91
:1006B000524200F044F800E090402C43F1D0404218
:1006C00070BD00F0004230F000400AD0C10D01F5CD
:1006D0006071C0F3160042EA0151C208400711439D
:1006E000704700200146704701F0004330B421F00C
:1006F000004150EA010206D00A0DA2F56072C1F372
:100700001301002A02DC30BC00207047440F44EA89
:10071000C104C100E01830BC00EBC25000F031B899
:10072000202A04DB203A00FA02F1002070479140B1
:10073000C2F1200320FA03F3194390407047202AA6
:1007400004DB203A21FA02F00021704721FA02F37B
:10075000D040C2F120029140084319467047202A38
:1007600006DBCB17203A41FA02F043EAE07306E0D9
:1007700041FA02F3D040C2F12002914008431946E9
:1007800070470029A8BF7047401C490008BF20F0EF
:100790000100704710B4B0FA80FC00FA0CF050EA87
:1007A000010404BF10BC704749B1CCF1200421FA08
:1007B00004F411FA0CF118BF012121430843A3EB03
:1007C0000C01CB1D4FEA00614FEA102042BF002010
:1007D00010BC704700EBC35010440029A4BF10BCEC
:1007E0007047401C490008BF20F0010010BC704752
:1007F00010B5141E73F1000408DA401C41F1000129
:1008000092185B411A4301D120F0010010BD2DE97F
:10081000F04D92469B4611B1B1FA81F202E0B0FA76
:1008200080F220329046FFF77BFF04460F4640EAF5
:100830000A0041EA0B0153465A46084313D01146B9
:1008400053EA010019D0C8F140025046FFF777FF84
:1008500005460E46504659464246FFF761FF08439B
:1008600005D0012004E020463946BDE8F08D002087
:10087000054346EAE0762C4337430A986305E40AC9
:10088000A0EB08000022FD0A44EA47540A3002D5D2
:1008900000200146E9E7010510196941DDE9084535
:1008A00000196941BDE8F04DA2E70000064C074D74
:1008B00006E0E06840F0010394E807009847103430
:1008C000AC42F6D3FFF776FC2067000840670008CB
:1008D000D0ED000AF4EEC00AF1EE10FA01DD80ED71
:1008E000000AD0ED000AB1EE400AF4EEC00AF1EEC3
:1008F00010FA01D280ED000A7047000010B504F034
:1009000001FB01222021084800F0D4FF074800F035
:1009100068F8074800F065F8044800F0DBFCBDE823
:100920001040034800F0D6BC001C0240FC00002030
:1009300024010020FEE70000014800F03CBA00005E
:10094000FC000020014800F036BA0000FC00002046
:10095000014800F030BA0000FC000020014800F01F
:100960002ABA0000FC000020014800F024BA000070
:1009700024010020014800F01EBA000024010020DC
:10098000014800F018BA000024010020014800F0DE
:1009900012BA00002401002030B589B0DDE90C5402
:1009A000029100210491059108210691110A8DF808
:1009B00000108DF80120190A8DF80210290A8DF80F
:1009C00004108DF80550210A8DF806108DF80330BB
:1009D0008DF8074008AB6A4602A900F083F809B019
:1009E00030BD10B58AB0044602200021CDE90501D2
:1009F0000391012004910791CDE908010091019133
:100A000002916946204600F0DBF828B90221204611
:100A100000F056F8002800D001200AB010BD0000F8
:100A2000014800F0E5BC000084030020014800F00C
:100A3000DFBC0000E403002001681823CAB2103AAA
:100A4000B2FBF3F2054B6FF30901032A9B5CC3650C
:100A500000D9091D816508467047000084630008BD
:100A600010B5014600208B698A6A4FF0C07453B1FB
:100A7000B3F5005F15D072B1012A0CD0022A0AD05A
:100A8000032A09D104E01AB1012A06D0022A03D1AF
:100A9000C96AC90100D5012010BDC96AA142FAD0B6
:100AA00010BD002AF7D0012AF2D0022AF3D0032A7F
:100AB000F3D010BD7047012000F0D6BD72B6FEE73E
:100AC00090F82020012A07D0022A05D0416A41F47B
:100AD0008021416201207047006842690A434261F7
:100AE00000207047F0B590F820500468A468012DEC
:100AF00005D0022D03D0416A41F480215DE014F05D
:100B0000406F01D1E50055D5C4F30164022C03D92F
:100B1000416A41F4000150E00125A5401D608D6847
:100B20004FF4C0739DB1CE6835434E6845EAC605A3
:100B3000066803EB0417F5514FF4C275076805EB1F
:100B400004150E697E51097D012905D009E00E8842
:100B5000CD6845EA4655EBE701684E5946F4807684
:100B60004E511179D579567941EA056195792D046F
:100B700045EA062529434FF4C676056806EB0416B8
:100B8000A9511178D57841EA0561957852782D04FC
:100B900045EA022211434FF4C475026805EB0415BF
:100BA0005151006803EB0411425842F001024250D7
:100BB0000020F0BD416A41F4001141620120F0BD06
:100BC00010B590F82020012A07D0022A05D0416AEA
:100BD00041F480214162012010BD3B48D0F8002241
:100BE00042F00102C0F80022D0F8002222F47C5228
:100BF000C0F80022D0F800224B6A42EA0322C0F873
:100C000000220A7D02F01F0301229A40D0F81C3214
:100C10009343C0F81C32CB69B3B9D0F80C3293437C
:100C2000C0F80C328C894B6864F31F434C6900EBAD
:100C3000C404C4F840320C890B6864F31F434C6948
:100C400000EBC404C4F84432CB69012B16D1D0F8B0
:100C50000C321343C0F80C320C884B6864F31F430A
:100C60004C6900EBC404C4F840320C89CB6864F3CF
:100C70001F434C6900EBC404C4F844328B69002B59
:100C8000D0F804320ED01343C0F804320B69002BA5
:100C9000D0F8143208D01343C0F81432096A01297D
:100CA00004D008E09343EFE79343F5E7D0F81C1234
:100CB0001143C0F81C12D0F8001221F00101C0F855
:100CC0000012002010BD000000640040704730B5E5
:100CD00090F82040012C05D0022C03D0416A41F449
:100CE00080215DE00468002955D02469A40754D010
:100CF0004FF4D874056804EB01142D5915F0040560
:100D0000956005682D594ED0ED08556005682C5941
:100D100004F00204D4604FF4DA74056804EB0114A3
:100D20002D5905F00F05156105682D59C5F30725E7
:100D3000956105682C59240C54614FF4DC720468E9
:100D400002EB0112A4581C700468A458240A5C70B9
:100D50000468A458240C9C700468A258120EDA701F
:100D60004FF4DE72046802EB0112A4581C7104688F
:100D7000A458240A5C710468A458240C9C7104686B
:100D8000A258120EDA71006881B1016941F02001A8
:100D90000161002030BDE468A8E7416A41F4001118
:100DA0004162012030BD6D0D1560AFE7C16841F0B3
:100DB0002001C160EDE72DE9F05F054600680024E1
:100DC0004669D0F804908768D0F80CB0D0F810A02D
:100DD000D0F81880F10748D0F90714D001218160BC
:100DE000B80703D5284600F0A2FA0CE0780702D530
:100DF0004FF4006407E0380702D54FF4805402E056
:100E0000284600F093FAF80516D529684FF480704B
:100E10008860B80503D5284600F08BFA0CE0780509
:100E200002D544F4005407E0380502D544F4804468
:100E300002E0284600F07CFAF80316D529684FF442
:100E400080308860B80303D5284600F074FA0CE0BF
:100E5000780302D544F4004407E0380302D544F493
:100E6000803402E0284600F065FA300707D55FEAD3
:100E7000CB6004D52968102044F40074C860700762
:100E80004FF0080707D55FEA0B7004D52868C760E4
:100E9000284600F0C9F9B00706D52868C068800761
:100EA00002D0284600F0C2F9700607D55FEACA6092
:100EB00004D52968102044F480640861B00607D581
:100EC0005FEA0A7004D528680761284600F0FEF939
:100ED000F00606D528680069800702D0284600F091
:100EE000F6F9B00308D55FEAC96005D52968102076
:100EF0004860284600F0ECF9F00307D55FEA097076
:100F000004D528684760284600F016FA300446D514
:100F10005FEA497040D5F00504D55FEAC87001D09A
:100F200044F00104B00504D55FEA887001D544F0AF
:100F30000204700504D55FEA487001D544F004044A
:100F4000300529D518F0700F26D008F07000402821
:100F500015D006DC102809D020280AD0302816D158
:100F60000AE050280ED0602811D10EE044F00804A9
:100F70000DE044F010040AE044F0200407E044F0DF
:100F8000400404E044F0800401E044F480742868E4
:100F9000816921F070018161296804204860002C7A
:100FA00005D0686A204368622846FFF78FFEBDE8D7
:100FB000F09F70B5040003D094F8200010B104E055
:100FC000012070BD204600F081F82068016841F0E2
:100FD0000101016000F074FC0546052604E000F004
:100FE0006FFC401B0A2811D820684068C007F6D063
:100FF0002068016821F00201016000F061FC0546F3
:101000000BE000F05DFC401B0A2806D9606A40F442
:101010000030606284F82060D2E720684068800772
:10102000EFD4207E0128206801683DD021F08001A6
:101030000160607E01282068016838D021F04001FD
:101040000160A07E01282068016833D021F02001D2
:101050000160E07E0128206801682ED041F0100177
:101060000160207F01282068016829D021F0080153
:101070000160607F01282068016824D021F004010C
:101080000160D4E902010843D4E904121143084382
:101090006168491E08432168C86100206062012020
:1010A00084F82000002070BD41F08001C0E741F0CD
:1010B0004001C5E741F02001CAE721F01001CFE768
:1010C00041F00801D4E741F00401D9E7F0B587B059
:1010D000044614216846FFF731F94E4B4E48DFF8BD
:1010E00030E11968D4F800C04B4A032502260927CD
:1010F00010300024491CF4453AD11960012907D168
:10110000016841F000710160006800F00070059016
:10111000106840F0080010601068CDE9005600F03B
:101120000800CDE9047069463C48CDE9024500F06D
:10113000A7FA00220521132000F04EFC132000F036
:101140003DFC00220521142000F046FC142000F094
:1011500035FC00220521152000F03EFC152000F092
:101160002DFC00220521162000F036FC16204BE055
:10117000DFF8ACE0F44549D1D0F800C04CF0806C09
:10118000C0F800C0D0F800C001290CF0806CCDF888
:1011900014C0196007D1016841F000710160006856
:1011A00000F000700590106840F0020010601068B8
:1011B00002AB00F0020005904FF44050CDE900066C
:1011C00083E8B0006946174800F05AFA002205216A
:1011D0003F2000F001FC3F2000F0F0FB0022052141
:1011E000402000F0F9FB402000F0E8FB0022052140
:1011F000412000F0F1FB412000F0E0FB002205213E
:10120000422000F0E9FB422000F0D8FB07B0F0BD1F
:10121000006400400800002030380240000C02400A
:1012200000680040000402407047000030B5234AC7
:101230000168234C95148DB091420ED104AB06AADF
:101240000021FFF744FD1F48069911E0D0F8FC2F5C
:101250001144C0F8FC1F0DB030BD1B4A9142FAD1B9
:1012600004AB06AA0021FFF732FD1648069980302C
:1012700000EB0110A0F50050103801880181BDF885
:10128000101049BA0180BDF8121049BA4180BDF86A
:10129000141049BA81809DF8161081710188028965
:1012A000A0F57F60891AA14202DA01F50051CDE76D
:1012B000A942CBDDA1F50051C8E700000064004061
:1012C00000F0FFFF184D0020006800407047704795
:1012D0007047000070B5044690F82000012804D043
:1012E000606A40F40020606218E0022084F8200068
:1012F0002068016821F00101016000F0E1FA054673
:101300000EE000BF00F0DCFA401B0A2808D9606A32
:1013100040F400306062052084F82000012070BD98
:1013200020684068C007EDD1606270BD70477047AB
:10133000704770477047704770472DE9F041044689
:10134000876D00F0BDFA064694F8350000250228A6
:1013500006D08020606584F834500120BDE8F0811B
:101360002068016821F0160101602068416921F0C0
:1013700080014161206C08B9A06C20B1206801682F
:1013800021F0080101602068016821F0010101607D
:101390000CE000F095FA801B052807D92020606535
:1013A000032084F8350084F83450D7E720680068BB
:1013B000C007EED194F85C103F208840B86001204F
:1013C00084F8350084F834500020C7E790F83510D1
:1013D000022903D08021416501207047052180F852
:1013E00035100068016821F001010160002070479C
:1013F0002DE9F84304464FF00009CDF8009063480A
:101400004FF41651A56D0068B0FBF1F72E6894F803
:101410005C10082000FA01F131420FD021680A68FF
:1014200052070BD50A6822F004020A6094F85C1097
:101430008840A860606D40F00100606594F85C1021
:101440004FF0010808FA01F0304208D021684969DC
:10145000090604D5A860606D40F00200606594F84C
:101460005C1004208840304208D021680968890750
:1014700004D5A860606D40F00400606594F85C10CD
:1014800010208840304218D021680968090714D517
:10149000A86020680168490304D50068000308D5E6
:1014A000A16C07E00168C90503D4016821F00801B7
:1014B0000160216C09B12046884794F85C10202017
:1014C0008840304231D021680968C9062DD5A8600E
:1014D00094F8350005282068016806D0490347D5EF
:1014E000006800031DD4616C1CE021F0160101604E
:1014F0002068416921F080014161206C08B9A06C2D
:1015000020B12068016821F00801016094F85C10A6
:101510003F208840A86084F8358084F83490216D9D
:101520001FE0E16B09B120468847606D00282BD091
:10153000606DC00714D0052084F83500206801686C
:1015400021F0010101600098401C0090B84203D8CE
:1015500020680068C007F6D184F8358084F834909C
:10156000E16C002910D001B02046BDE8F0430847E7
:101570000168C905D5D4016821F01001016084F823
:10158000358084F83490CCE7BDE8F8831C00002057
:101590002DE9F041044600F093F906465CB10220C3
:1015A00084F83500002584F834502068016821F063
:1015B000010101600DE00120BDE8F08100F080F93B
:1015C000801B052805D920206065032084F835009C
:1015D000F2E720680068C007F0D12268116820484F
:1015E0000140D4E901031843D4E9033633431843D7
:1015F00063691843A3691843E3691843236A1843CE
:101600000843616A042903D1D4E90B131943084341
:10161000106020684069666A20F0070130460E437A
:10162000012704280CD1A06A0643E06A40B1204695
:10163000FFF716FA20B14020606584F83570BAE7EC
:10164000206846612046FFF7F7F994F85C203F21B7
:1016500091408160656584F835700020ACE700003A
:101660003F8010F070470000044910B50A6802423C
:1016700002D00860FFF7F6FF10BD0000143C0140E7
:101680002DE9F84FDFF8F8A10022012403254FF0DF
:101690000F090AF1040BAAF1040E00BF0B6804FA4B
:1016A00002F63340B34270D10F7907F00307012FE0
:1016B00001D0022F16D187684FEA420805FA08FCCC
:1016C00027EA0C07D1F80CC00CFA08FC4CEA070C0E
:1016D000C0F808C04768B7430E79C6F300169640B5
:1016E0003E4346600E79F643B6070AD0C7684FEA14
:1016F000420C05FA0CF6B7438E6806FA0CF63E4328
:10170000C6600E7906F00306022E10D1D60800EB53
:101710008608D8F8206057074FEAD76C09FA0CF70B
:10172000BE430F6907FA0CF73743C8F82070066804
:101730004FEA420C05FA0CF7BE430F7907F0030796
:1017400007FA0CF7374307604E6816F4403F1CD089
:101750004C4E376847F480473760366822F00307FD
:1017600006F480460096484E07EB060CDCF8086845
:1017700097073F0F09FA07F826EA0806DFF80C81F9
:10178000404503D14FF0000841E072E0DFF80081EE
:10179000404502D14FF0010839E0DFF8F8804045BC
:1017A00002D14FF0020832E0DFF8EC80404502D170
:1017B0004FF003082BE0DFF8E480404502D14FF002
:1017C000040824E0DFF8D880404502D14FF0050836
:1017D0001DE0DFF8D080404502D14FF0060816E04A
:1017E000DFF8C480404502D14FF007080FE0DFF872
:1017F000BC80404502D14FF0080808E0DFF8B08017
:10180000404502D14FF0090801E04FF00A0808FAFC
:1018100007F848EA0608CCF80888DAF80060574666
:10182000D1F804C09E435FEACC2C00D51E433E6035
:10183000DBF800605F46D1F804C09E435FEA8C2C61
:1018400000D51E433E60DEF800607746D1F804C044
:101850009E435FEA8C3C00D51E433E60084F083F24
:101860003E68D1F804C09E435FEACC3C00D51E43DD
:101870003E60521C102AFFF411AFBDE8F88F000043
:10188000083C014044380240003001400000024062
:101890000004024000080240000C02400010024018
:1018A0000014024000180240001C024000200240C8
:1018B000002402400AB1816170470904FBE700007F
:1018C00001488068704700001000002002488168CD
:1018D0000278114481607047100000200B4810B559
:1018E000016841F400710160016841F480610160A8
:1018F000016841F480710160032000F08DF80F2031
:1019000000F006F800F03EF8002010BD003C024058
:1019100010B5014688B00022192000F05DF81920AA
:1019200000F04CF813480024016841F00101016007
:10193000006805A900F001000690684600F050F923
:1019400000F07EF90C494000B0FBF1F10C480B4A65
:10195000491E026040F2E732C0E90324C0E90114E5
:1019600000F0DAFB10B1012008B010BD044800F00F
:1019700093FCF9E74438024040420F000000014068
:101980004C0100200C4882B0016841F480410160A4
:10199000006800F4804000900748001F016841F093
:1019A000805101600068002200F0805000900F21FB
:1019B000901E02B000F010B844380240002809DB45
:1019C00000F01F02012191404009800000F1E02059
:1019D000C0F8001170470000F0B40E4B1B680C46B5
:1019E000C3F30223C3F10705042D00D90425191DF3
:1019F000072901D2002300E0DB1E012606FA05F1CB
:101A0000491E214099409E40761E16403143F0BC4D
:101A100002F0B7BA0CED00E0064900F007020868D2
:101A20004FF6FF03184040EA0220034A10430860C3
:101A3000704700000CED00E00000FA052DE9F843C6
:101A40001748016841F0805101600068154F00F0AF
:101A50008050012600903E64FFF732FF05464FF4A8
:101A60007A78114C05E000BFFFF72AFF401B404584
:101A70000DD86068C003F7D57E64FFF721FF0546E7
:101A8000464607E0FFF71CFF401BB04202D9032087
:101A9000BDE8F88360688003F4D50020F8E7000013
:101AA0004038024000000E42007000402DE9F0472F
:101AB0000E46050065D0DFF81481D8F80000F7B2B3
:101AC00000F00F00B04207D288F80070D8F800008C
:101AD00000F00F00B04254D128683D4C810712D568
:101AE000400703D5206840F4E050206028780007C4
:101AF00003D5206840F4604020602068A96820F089
:101B0000F000084320602878C0072DD0304968686D
:101B10000839012812D0022813D0032811D00968EF
:101B2000890700292DDA216821F003010143216092
:101B3000FFF7C6FE814641F2883A0EE00968890344
:101B4000EFE709688901ECE7FFF7BAFEA0EB0901AE
:101B5000514502D90320BDE8F0872068696800F08C
:101B60000C00B0EB810FEFD1D8F80010404601F027
:101B70000F01B14207D90770006800F00F00B042B2
:101B800001D00120E7E72878400705D52068E968FB
:101B900020F4E050084320602878000706D520682C
:101BA000296920F4604040EAC100206000F058F844
:101BB0002168084AC1F30311515CC8400649086016
:101BC00006480068FFF7A4FE0020C4E7003C02407E
:101BD000083802408C6300081C000020140000201C
:101BE0000F2202600C4A136803F00303436013687A
:101BF00003F0F0038360136803F4E053C3601268DA
:101C00004FF4E05303EAD20202610448006800F096
:101C10000F0008607047000008380240003C024096
:101C20000448054900680968044AC1F38221515CEF
:101C3000C84070471C000020083802409C63000820
:101C40000448054900680968044AC1F34231515CFF
:101C5000C84070471C000020083802409C63000800
:101C6000154810B5006810F00C02144813D0144940
:101C7000042A0FD0082A0ED10F4C241F2268236893
:101C800002F03F025B0207D52068C0F38810A0FB7A
:101C9000010106E0084610BD2168C1F38811A1FBCF
:101CA00000010023FEF700FB2168C1F30141491C3C
:101CB0004900B0FBF1F010BD083802400024F400E8
:101CC000001BB7002DE9F84F04006ED02078DFF834
:101CD0004C93C007A9F104054AD009F1040001683A
:101CE000C1F38101012908D00068C0F381000228F6
:101CF0000AD1D9F80000400206D52868800337D5FC
:101D000060680028E1D033E06068B0F5803F10D013
:101D1000B0F5A02F286810D020F480302860286803
:101D200020F4802028606068A8B1FFF7C9FD06464E
:101D30000DE0286840F48030F4E740F4802028600B
:101D4000F7E700BFFFF7BCFD801B642873D8286845
:101D50008003F7D50CE0FFF7B3FD064605E000BFB2
:101D6000FFF7AEFD801B6428F0D828688003F7D405
:101D70002078DFF8AC8280074FF0000A3ED5A748F4
:101D8000001D016811F00C0F08D00068C0F381003D
:101D900002280BD1D9F80000400207D42868800738
:101DA00016D5E068012800D112E033E1E068B8B14F
:101DB0000120C8F80000FFF783FD064605E000BFDC
:101DC000FFF77EFD801B0228C0D828688007F7D562
:101DD0002868216920F0F80040EAC10028600DE081
:101DE000C8F800A0FFF76CFD064604E0FFF768FDA9
:101DF000801B02281FD828688007F7D420780007A6
:101E000022D5864F87486169703771B10121016021
:101E1000FFF756FD064604E0FFF752FD801B02283F
:101E200009D838688007F7D50EE0C0F800A0FFF7A2
:101E300047FD064605E082E0FFF742FD801B0228D1
:101E40007DD838688007F7D42078400768D5DFF858
:101E5000CCB100270BF13C0BDBF80000C0000BD429
:101E6000DBF8001041F08051CBF80010DBF80000E7
:101E7000012700F0805000906B4E3068C00510D4F0
:101E8000306840F480703060FFF71AFD009005E084
:101E9000FFF716FD0099401A022850D83068C00597
:101EA000F6D55E4EA0686C3601280FD00528306844
:101EB00010D020F001003060306820F00400306065
:101EC000A068B8B1FFF7FCFC00900FE0306840F06C
:101ED0000100F4E740F004003060F7E7FFF7F0FCA2
:101EE0000099411A41F28830814266D830688007F3
:101EF000F4D50EE0FFF7E4FC009007E0FFF7E0FC0C
:101F00000099411A41F28830814256D830688007E2
:101F1000F4D42FB1DBF8001021F08051CBF8001081
:101F2000A069C8B33D49091D0968C1F381010229AF
:101F30004AD00228504607D0C8F8600000E03CE0D4
:101F4000FFF7BEFC04463BE04746C8F86000FFF7D9
:101F5000B7FC064605E000BFFFF7B2FC801B022875
:101F60002BD828688001F7D4D4E907010843A16A77
:101F70002E4A490802EB0141626A41EA8211084394
:101F800094F82C1040EA0161C9F80010012038666D
:101F9000FFF796FC044606E03EE000BFFFF790FC2A
:101FA000001B022809D828688001F7D534E000BF5B
:101FB000FFF786FC001B022802D90320BDE8F88F3A
:101FC00028688001F4D427E00128F7D0D9F8000070
:101FD000E26900F4800191421CD1226A00F03F01C5
:101FE000914217D147F6C071626A0140B1EB821F7E
:101FF00010D1A26A4FF0FF3300F4403103EB5202DC
:10200000B1EB024F06D194F82C1000F07060B0EBE9
:10201000016F01D00120D1E70020CFE70438024052
:1020200000004742800E4742007000400000FFFF62
:102030007047704710B590F83C20012A22D0012249
:1020400080F83C20CA688C6822F4407222434C68B5
:1020500022F4806222430C6822F4006222430C695D
:1020600022F4805222434C6922F400522243C9696F
:10207000002322F480420A4301684A6480F83C301D
:10208000002010BD022010BD70B590F83C20012A40
:1020900032D0012480F83C40022280F83D200368C1
:1020A0005A689D6822F070060A6832435A60134BE2
:1020B00002689A4214D0B2F1804F11D0104B9A426C
:1020C0000ED0104B9A420BD00F4B9A4208D00F4BB8
:1020D0009A4205D00E4B9A4202D00E4B9A4204D13E
:1020E000496825F080031943916080F83D40002144
:1020F00080F83C10084670BD022070BD0000014011
:102100000004004000080040000C004000040140B2
:10211000004001400018004010B5040003D094F8BE
:102120003D0010B107E0012010BD002084F83C0004
:10213000204600F01FF8022084F83D00211D206891
:1021400001F048FC012084F8460084F83E0084F841
:102150003F0084F8400084F8410084F8420084F88D
:10216000430084F8440084F8450084F83D000020D2
:1021700010BD000008B52349026823488A4207D1F0
:10218000016841F001010160006800F001000AE00F
:102190001D491E4B091F9A4207D1086840F00200F2
:1021A000086008681FE0009008BD194B9A4207D1EB
:1021B000086840F004000860086800F00400F2E7D6
:1021C000144B9A4207D1086840F00800086008687C
:1021D00000F00800E7E710498A4207D1016841F0A2
:1021E00002010160006800F00200DCE70B498A424E
:1021F000DAD1016841F400310160006800F4003078
:10220000D1E70000000001404438024000040040D3
:1022100000080040000C0040000401400044014060
:1022200090F83D10012901D001207047022180F86B
:102230003D1000681149884214D0B0F1804F11D090
:102240000F4988420ED00F4988420BD00E49884270
:1022500008D00E49884205D00D49884202D00D4968
:10226000884204D1816801F00701062903D0016882
:1022700041F00101016000207047000000000140B2
:102280000004004000080040000C00400004014031
:10229000004001400018004090F83D10012901D095
:1022A00001207047022180F83D100168CA6842F0A1
:1022B0000102CA6000681149884214D0B0F1804F11
:1022C00011D00F4988420ED00E4988420BD00E49DA
:1022D000884208D00D49884205D00D49884202D075
:1022E0000C49884204D1816801F00701062903D016
:1022F000016841F0010101600020704700000140C9
:102300000004004000080040000C004000040140B0
:10231000004001400018004070B5044690F83C00B1
:102320000025012817D0012684F83C60022084F89B
:102330003D002068826822F0770222F47F428260AA
:102340000868502838D00DDC20284FD005DC90B329
:10235000102811D14AE0022070BD302846D0402814
:102360000AD13BE060282FD070280DD0B0F5805FF7
:1023700003D0B0F5005F12D0012584F83D60002045
:1023800084F83C00284670BDCB68D1E90121206863
:1023900001F091FB2068816841F0770109E0CB688A
:1023A000D1E90121206801F086FB2068816841F4B1
:1023B00080418160E1E719E0CA684968206801F05E
:1023C0004FFC5021206806E0CA684968206801F087
:1023D00058FC6021206801F078FBCEE7CA684968A4
:1023E000206801F03DFC40212068F4E722680146A6
:1023F0001046F0E7704770B50446006801694FF079
:102400000005C943890715D4C168C943890711D498
:10241000E91E01610120207720688069800720463D
:1024200002D0FFF7E7FF04E000F094F9204600F047
:1024300026FA257720680169C943490717D4C1687E
:10244000C943490713D46FF00401016102202077CA
:102450002068806910F4407F204602D0FFF7CAFF51
:1024600004E000F077F9204600F009FA25772068AB
:102470000169C943090716D4C168C943090712D4C1
:102480006FF008010161042020772068C06980078F
:10249000204602D0FFF7AEFF04E000F05BF92046D3
:1024A00000F0EDF9257720680169C943C90617D402
:1024B000C168C943C90613D46FF010010161082037
:1024C00020772068C06910F4407F204602D0FFF7D3
:1024D00091FF04E000F03EF9204600F0D0F92577A6
:1024E00020680169C943C90708D1C168C943C90740
:1024F00004D1891E0161204600F026FA2068016996
:10250000C943090609D4C168C943090605D46FF057
:10251000800101612046FFF78BFD20680169C943F6
:10252000490609D4C168C943490605D46FF0400182
:102530000161204600F012FA20680169C94389064A
:102540000BD4C168C943890607D46FF0200101612B
:102550002046BDE87040FFF76CBD70BD2DE9F0412D
:1025600086B0044614216846FDF7E8FE6A4A2168F1
:102570006A4802240125914223D1016841F01001EB
:1025800001600068694600F0100005904FF420607B
:102590008DE831006248CDE90345FFF771F86148E5
:1025A000FFF73EFE00215F4800F06AF904215D4814
:1025B00000F066F908215B4800F062F90C215948E7
:1025C0001CE0594ADFF8648191421CD1016841F056
:1025D000040101600068694600F004000590901550
:1025E0008DE83100039440460494FFF749F84D48C4
:1025F0004830FFF715FE4B480821483000F040F9FD
:1026000006B0BDE8F0814A4A0326914210D1016824
:1026100041F0080101600068694600F0080005907B
:1026200010148DE8710043480494FFF729F8E7E798
:10263000414A914223D1016841F080010160006864
:10264000694600F0800005904FF4E0508DE83100BD
:1026500003943A480494FFF713F83248D830FFF750
:10266000DFFD30480021D83000F00AF92D48042160
:10267000D83000F005F92B480821D830BEE7304AA1
:10268000402791422BD1016841F4807101600168BB
:1026900001F480710591016841F004010160006856
:1026A0000097CDE9014500F00400CDE904606946DA
:1026B00003942448FEF7E4FF0097CDE90145CDE9F6
:1026C000034669464046FEF7DBFF1F48FFF7A8FDBB
:1026D00000211D4800F0D4F804211B488EE71B4A56
:1026E00091428DD1016841F020010160006800979E
:1026F000CDE9014500F02000CDE90460694603946E
:102700001348FEF7BDFF10484830FFF789FD0E481B
:102710000021483072E700000000014030380240DC
:10272000001002404C01002000040040000802405C
:1027300000080040000C0240000C0040001C024059
:1027400000040140002002406C02002000440140CF
:1027500000140240704770B5044690F83C00002613
:102760000D4601280FD0012084F83C006AB1042AEC
:102770001DD0082A2FD00C2A3FD00126002084F833
:102780003C00304670BD022070BD206801F0A6F903
:102790002068816941F0080181612068816921F028
:1027A00004018161206881692A69114311E0206870
:1027B00001F0C4F92068816941F4006181612068F9
:1027C000816921F480618161206881692A6941EA17
:1027D00002218161D2E7206801F0E6F92068C16931
:1027E00041F00801C1612068C16921F00401C161A3
:1027F0002068C1692A69114311E0206801F008FAD4
:102800002068C16941F40061C1612068C16921F497
:102810008061C1612068C1692A6941EA0221C16100
:10282000ACE710B5040003D094F83D0010B107E008
:10283000012010BD002084F83C00204600F01EF866
:10284000022084F83D00211D206801F0C3F801201A
:1028500084F8460084F83E0084F83F0084F8400085
:1028600084F8410084F8420084F8430084F844006E
:1028700084F8450084F83D00002010BD7047704783
:1028800010B50446022249B104290ED0082913D0FC
:1028900094F84100012816D0012010BD94F83E00A4
:1028A0000128F9D184F83E200FE094F83F00012878
:1028B000F2D184F83F2008E094F840000128EBD1E1
:1028C00084F8402001E084F841200122206801F0D2
:1028D000E5F816492068164A884201D0904203D193
:1028E000436C43F4004343642068884213D0B0F142
:1028F000804F10D00F4988420DD00F4988420AD02E
:102900000E49884207D0904205D00D49884202D036
:102910000C49884204D1816801F00701062903D0DF
:10292000016841F001010160002010BD000001407C
:10293000000401400004004000080040000C00407A
:10294000004001400018004000680349884201D15E
:10295000FEF7BCBF704700000000014070477047A1
:1029600070470000F8B5016804460868CA684B69FA
:1029700010F00F0F4FF0000559D003F0010602F4DC
:102980009077374365D0C10705D0D10503D5216CB9
:1029900041F001012164410705D5D90703D0216C1D
:1029A00041F002012164810705D5D90703D0216CCC
:1029B00041F004012164010707D502F020013143F1
:1029C00003D0216C41F008012164216C00293AD028
:1029D000800604D5900602D5204601F0E0F9206873
:1029E0004069216CC0F38010090700D460B3204611
:1029F00001F0AEF920684069400621D52068143006
:102A000050E8001F21F0400140E80012002AF5D1F3
:102A1000A06BA8B16C490165A06BFEF7D7FC00283C
:102A200011D0A06B016D01B0BDE8F04008478306EE
:102A30000FD593060DD52046BDE8F84001F0AFB99B
:102A40002046FFF78DFFF8BD2046FFF789FF25647C
:102A5000F8BD266B2023012E79D1C60677D5D60680
:102A600075D50868486800904869400640D5A16B54
:102A7000086840680004000CEAD0A28D8242E7D9C1
:102A8000E085C869B0F5807F2DD020680C3050E813
:102A9000001F21F4807140E80012002AF5D120685F
:102AA000143050E8001F21F0010140E80012002A14
:102AB000F5D12068143050E8001F21F0400140E8B3
:102AC0000012002AF5D184F83E30256320680C30CE
:102AD00050E8001F21F0100140E80012002AF5D153
:102AE000A06BFEF72AFCA08DE18D401A81B229E08F
:102AF000A08DE18D401A81B2E08D0028A8D0002978
:102B0000A6D020680C3050E8002F22F4907240E8E4
:102B10000026002EF5D12068143050E8002F22F056
:102B2000010240E80026002EF5D184F83E302563EE
:102B300020680C3050E8002F22F0100240E80023FB
:102B4000002BF5D12046FFF70AFFF8BDFFE7050689
:102B50002BD5150629D594F83D002128F5D1A0687C
:102B6000B0F5805F01D12069B0B1206A411C2162BB
:102B7000216800784860E08C401E0004000CE0846E
:102B8000E3D12068C16821F08001C1602068C1687C
:102B900041F04001C160D8E7206A0088C0F3080016
:102BA0004860206A801C2062E5E74006CDD55006CB
:102BB000CBD5CA68204622F04002CA6084F83D3076
:102BC00000F0CFF8C1E70000413D000870B50400F7
:102BD00004D094F83D00002510B106E0012070BD3E
:102BE00084F83C50204600F023F8242084F83D006F
:102BF0002068C16821F40051C160204601F030F91D
:102C00002068016921F4904101612068416921F047
:102C10002A0141612068C16841F40051C160256406
:102C2000202084F83D0084F83E00002070BD0000A4
:102C3000F0B587B0064614216846FDF77FFB414892
:102C40003F4D32680024032102230715AA4236D1E2
:102C50003C4A1032156845F000451560126802F0D4
:102C600000420592026842F010020260006800F023
:102C7000100005908DE81A000820CDE90310694680
:102C80003148FEF7FDFC324D304828600005C5E9AB
:102C90000104C5E903476C61AC61EC612C62284614
:102CA0006C62FEF775FC08B1FDF708FFB563002202
:102CB00005215320AE63FEF78FFE53203BE0254DE8
:102CC000AA423AD11F4A1432156845F01005156022
:102CD000126802F010020592026842F002020260DD
:102CE000006800F002000590C0208DE81900072060
:102CF000CDE9031069461848FEF7C2FC144D174889
:102D0000603528604FF00060C5E90104C5E903475C
:102D10006C61AC61EC612C6228466C62FEF738FC99
:102D200008B1FDF7CBFEB563002205212520AE6377
:102D3000FEF752FE2520FEF741FE07B0F0BD000071
:102D4000007C00403038024000100240A060024089
:102D5000840300200010014000040240406402404F
:102D600070477047FEE700000F4810B50D4901603D
:102D70000921416000214FF480328160C0E90312D3
:102D800012014261017641768176C1760177417701
:102D9000FEF70FF9002803D0BDE81040FDF78EBE06
:102DA00010BD000000640040FC0000200F4810B57A
:102DB0000D4901600921416000214FF4803281609A
:102DC000C0E9031212014261017641768176C17633
:102DD00001774177FEF7EDF8002803D0BDE81040F9
:102DE000FDF76CBE10BD000000680040240100200B
:102DF000114808B5016841F480010160016801F4DF
:102E000080010091016841F4001101600068002216
:102E100000F40010009005211120FEF7DDFD1120C7
:102E2000FEF7CCFD002205213A20FEF7D5FDBDE8D6
:102E300008403A20FEF7C2BD3038024010B5074ABC
:102E40000021074801F032FA064C044A00212060B4
:102E50002432054801F02AFA606010BD3C63000886
:102E60007138000800000020D54B00082DE9F04F14
:102E700087B014216846FDF761FA9948002500687B
:102E8000974940F002000860086800F002000590D1
:102E9000086840F040000860086800F040000590B5
:102EA000086840F001000860086800F00100059023
:102EB0000846006840F008000860086800F0080054
:102EC0000590086840F004000860086800F00400FD
:102ED0000590086840F480700860086800F480700D
:102EE00005900846006840F020000860086800F07F
:102EF00020000590086840F080000860086800F035
:102F000080000590086840F0100008600868DFF84D
:102F1000D4A100F01000059001223C215046FEF79C
:102F2000C9FC4FF4FF77002239466F48FEF7C2FC18
:102F30004FF48068002241465046FEF7BBFC012258
:102F400040216948FEF7B6FC012210216748FEF7D0
:102F5000B1FC012241F201016548FEF7ABFCDFF84C
:102F600094B14FF47049002249465846FEF7A2FC3E
:102F7000F81CCDE900050124694602945E48FEF77D
:102F80007FFB3C20CDE900040226CDE902466946DC
:102F90005046FEF775FB0097CDE90145694652485A
:102FA0000395FEF76DFBCDF80080CDE9014569463C
:102FB00050460395FEF764FBCDF80090CDE901453E
:102FC000694658460395FEF75BFB4FF48810CDE940
:102FD0000040694645480294FEF752FB8020CDE947
:102FE0000004694644480294FEF74AFB4020CDE9BC
:102FF0000004029469463C480394FEF741FB092013
:103000004FF40417CDE90007694602943648FEF7ED
:1030100037FB0720CDE90005DFF8E0806946404630
:103020000295FEF72DFBCDE9004569462F48029435
:10303000FEF726FB1020CDE90004CDE902466946E3
:103040002A48FEF71DFB3020CDE9000769460294AF
:103050004046FEF715FB2003CDE9000402946946C3
:1030600023480394FEF70CFBCDE902460094694621
:103070001F480194FEF704FB66030096204FCDE93C
:10308000015469463846FEF7FBFA0096CDE9014542
:10309000694638460395FEF7F3FA062100220846F2
:1030A000FEF79AFC0620FEF789FC00220521092084
:1030B000FEF792FC0920FEF781FC002205210A2080
:1030C000FEF78AFC0A20FEF779FC00220521172072
:1030D000FEF782FC1720FEF771FC07B0BDE8F08F09
:1030E00030380240001C024000180240000002403C
:1030F00000040240000C0240002002400008024090
:103100000010024010B596B000240F941094119452
:10311000129413941C2168461494FDF70FF9202192
:1031200007A8FDF70BF92D482B490160A721C0E93D
:10313000011444F61F61C0E9031444618461FEF781
:10314000EBFF08B1FDF7BAFC4FF480500F900FA9C8
:103150002248FFF7E1F808B1FDF7B0FC1F48FFF780
:1031600060FB08B1FDF7AAFC139413A91B48149443
:10317000FEF78AFF08B1FDF7A1FC602000904FF434
:103180007A70CDE901040394049405940022694601
:1031900012480694FFF7DFFA08B1FDF78FFC04220E
:1031A00069460E48FFF7D7FA08B1FDF787FC079488
:1031B000089409944FF400500A94CDE90B4007A9F4
:1031C00006480E94FEF736FF08B1FDF777FC03487A
:1031D000FFF7C4F916B010BD000001404C010020FB
:1031E00010B596B000240F94109411941294139477
:1031F0001C2168461494FDF7A1F8202107A8FDF7CB
:103200009DF82D482B490160A721C0E9011444F61F
:103210001F61C0E9031444618461FEF77DFF08B1BA
:10322000FDF74CFC4FF480500F900FA92248FFF798
:1032300073F808B1FDF742FC1F48FFF7F2FA08B136
:10324000FDF73CFC139413A91B481494FEF71CFFD4
:1032500008B1FDF733FC602000904FF47A70CDE99F
:1032600001040394049405940022694612480694CC
:10327000FFF771FA08B1FDF721FC042269460E48F8
:10328000FFF769FA08B1FDF719FC0794089409944F
:103290004FF400500A94CDE90B4007A906480E945C
:1032A000FEF7C8FE08B1FDF709FC0348FFF756F921
:1032B00016B010BD000401406C0200200C4810B58F
:1032C0000A4901604FF4E1314160002181600C2224
:1032D000C160C0E904128161C161FFF777FC002879
:1032E00003D0BDE81040FDF7E9BB10BD007C0040F5
:1032F000FC0200200C4810B50A4901600B494160EE
:10330000002181600C22C160C0E904128161C161A9
:10331000FFF75CFC002803D0BDE81040FDF7CEBBF2
:1033200010BD00000010014040030020A0860100F5
:10333000FEE7000070B504462DED068BD0F8C800FE
:10334000DFED310A01880089081A00EE100AB8EE94
:10335000C00A10EE100A84ED360A10F16A5F02D935
:1033600030EE200A06E010EE100AB0F18B4F03DDBC
:1033700030EE600A84ED360A94ED3E0AD4ED360A4A
:10338000B8EEC00A30EE200ABDEEC00A10EE100AF8
:1033900044F8F80FFDF765F90E4646EC100B9FED6B
:1033A0001B8B054653EC182B51EC100BFDF778F8EE
:1033B0009FED181B53EC112BFDF7E4F89FED179BC5
:1033C00053EC192BFDF76CF89FED16AB53EC1A2B51
:1033D000FDF7D8F8FDF756F946EC105BA06053EC0A
:1033E000182B51EC100BFDF75BF853EC192BFDF784
:1033F00057F853EC1A2BFDF7C5F8FDF743F9E060D9
:10340000BDEC068B70BD000000000046000000000F
:103410000080764000000000000033400000000003
:103420000000203F0000000000002440B0F9FC1024
:103430000022A1F51C53103B03D042F21073D94275
:103440000BD1D0F81C11491CC0F81C11B1F52F7F0D
:1034500005D30121A0F820117047C0F81C21A0F865
:1034600020217047D0F8C810DFED080AB1F902102A
:1034700000EE101AB8EEC00A20EE200AF2EE040A9E
:1034800020EE200A80ED380A70470000F1A23E3B92
:10349000FEE7000000B50100DFED993A1FD091ED85
:1034A000092A984A81ED0A2A91ED0D3AB7EE001AE1
:1034B00081ED0E3A91ED144A81ED154AD1ED131AC2
:1034C000C1ED141AC1ED070A81ED080A30EEC00AF9
:1034D00081ED130A087828B101287CD0FCE0B0EE19
:1034E000630A00BDF5EEC00AF1EE601AF1EE10FAC3
:1034F00002DDF0EE602A01E0F0EE612A91ED170A9C
:10350000B5EEC00AF1EE10FA02DDB0EE402A01E09D
:10351000B1EE402AF4EEC22AF1EE10FA0CDD91ED84
:10352000040A01F13C0020EE200A81ED0F0A91ED22
:10353000180AFDF7CDF91EE0B5EEC00AF1EE10FA5B
:1035400019D0F5EEC00AF1EE10FA01DDF0EE601AC6
:10355000B5EEC00AF1EE10FA01DCB1EE400A30EE31
:10356000012A81EE820AD1ED041A20EE210A20EE12
:10357000200A81ED0F0AD1ED010A91ED130A20EE28
:10358000802A81ED0B2AD1ED0C0AD1ED021A41EE11
:10359000800AC1ED0C0AD1ED111AC1ED121AD1ED5C
:1035A000102AC1ED112AD1ED141A30EE610A81ED15
:1035B000100A91ED033A63EE001AC1ED0D1AD1ED38
:1035C000061AF4EEE10AF1EE10FA08DCF1EE611AE7
:1035D000F4EEE10A00E024E0F1EE10FA01D2C1EDD0
:1035E0000C1A487801280FD1D2ED010AD1ED0E1A3C
:1035F00031EE601A23EE011A21EE000A00EEA10A54
:1036000001EE620A81ED0D0A91ED0C0AD1ED0D0A71
:1036100032EE000A30EE200AD1ED0F0A30EE200A19
:1036200048E070EE610AD1ED012A60EEA22AC1EDF8
:103630000B2AD1ED020A60EE800AC1ED0C0A48782F
:1036400090B9B5EEC00AF1EE10FA02DDF0EE400AD4
:1036500001E0F1EE400AD2ED004AF4EEE40AF1EEA8
:1036600010FA01DDC1ED0C3AD1ED110A0128C1EDCE
:10367000120AF0EE000AD1ED103A01EEE00AC1EDB7
:10368000113A70EE041AC1ED101A28D0886D012885
:1036900025D091ED030A20EE210A81ED0D0A00BF2D
:1036A00091ED0C0AD1ED0D0A32EE800A30EE600A7F
:1036B00030EE020A81ED090AD1ED050AB4EEE00A06
:1036C000F1EE10FA06DCF1EE600AB4EEE00AF1EE7B
:1036D00010FA01D2C1ED090A91ED090A00BDD2ED3F
:1036E000010A91ED030A31EE601A20EE010A20EE84
:1036F000211A00EE831A00EE631A81ED0D1ACFE74E
:1037000000000000A0000020002834D0002A32D0A1
:10371000017092ED001A80ED011A92ED011A80ED10
:10372000021A92ED021A80ED031A92ED031A80ED4F
:10373000041A92ED061A80ED171A92ED071A80ED21
:10374000181A80ED050A9FED0C0AC0ED060A80EDFF
:10375000120A80ED110A80ED100A80ED090A80ED51
:103760000D0A80ED0C0A80ED0B0A80ED150A80ED44
:10377000140A80ED130A70470000000030B5144BA6
:103780001C68656945F0400565611B68DC6844F0AC
:103790001004DC600F4B1C68256825F001052560CE
:1037A0001C682568ED07F7D11D680B4CAC601C68E0
:1037B000E06018680161186842601868016841F4A7
:1037C000802101601868016841F00101016030BD8D
:1037D00040030020E40300200410014070B51E4C9B
:1037E0001E4DA078012823D11D4840F213214FF42B
:1037F0007A760068B0F9060088420BDBFCF731FFEF
:103800009FED181B53EC112BFCF74AFEFCF73AFF17
:10381000E06000E0E6602868E268426313484FF425
:103820000051B24201D1002200E00122FEF742F82D
:10383000A07808B102280ED1A068012803D0022880
:1038400004D0E06805E040F26A4001E04FF4A56072
:10385000E0602968486370BDD80000206C02002039
:103860007C5C0020666666666666FE3F001002406D
:1038700001F0E6BD10B51D48FFF7F4FD1B48FFF74A
:1038800059FD1A4850F8C81F8988C1861748FFF7A4
:10389000CDFD1748FFF7E6FD1548FFF74BFD14482F
:1038A00050F8C81F8988C1861148FFF7BFFD11482D
:1038B000FFF7D8FD0F48FFF73DFD0E4850F8C81F31
:1038C0008988C1860B48FFF7B1FD0B48FFF7CAFD99
:1038D0000948FFF72FFD084850F8C81F8988C1869E
:1038E000BDE810400448FFF7A1BD00008C57002040
:1038F000045A0020C8580020405B002010B54FF04B
:10390000E020006902F064FB012803D0BDE810400C
:1039100002F092B810BD000030B593B03021684677
:10392000FCF70CFD14210CA8FCF708FD204800252D
:10393000016841F080510160006800F080501190F2
:103940001C48016841F4404101600068022400F411
:103950004040119001200090000401908001CDE9C9
:10396000064008200890F020CDE9090404200B90BF
:103970006846FEF7A7F908B172B6FEE7FEF75EF8F3
:1039800008B172B6FEE70CA90F2081E831004FF4B0
:10399000A0500F904FF48050109005210CA8FEF716
:1039A00085F8002801D072B6FEE713B030BD0000E4
:1039B00040380240007000400248016841F4700144
:1039C0000160704788ED00E00148FEF714BD00007B
:1039D0004C010020F0B50268254C264D264E274F9D
:1039E000274B4FF0804CA04209D0604507D0A84239
:1039F00005D0B04203D0B84201D0984204D122F0A1
:103A0000700E4A6842EA0E02A0421BD0604519D0EF
:103A1000A84217D0B04215D0B84213D0984211D066
:103A2000184DA8420ED0184DA8420BD0174DA842F1
:103A300008D0174DA84205D0164DA84202D0164D09
:103A4000A84203D122F44075CA682A434D6922F086
:103A500080022A4302608A68C2620A688262A042C7
:103A600001D0984201D10969016301214161F0BD92
:103A7000000001400004004000080040000C00402D
:103A80000004014000400140004401400048014062
:103A900000180040001C00400020004010B501F05C
:103AA0001F030121046A99408C430462016A9A4011
:103AB0001143016210BD10B5846842EA032224F468
:103AC0007F440A432243826010BD826822F0700264
:103AD0000A4342F00701816070470000F0B5026AB6
:103AE00022F001020262036A42688469124E24F0E5
:103AF00073050C682C4323F002058B682B430D4D96
:103B0000A84201D0B04205D123F00807CB683B435F
:103B100023F00403A84201D0B04205D14D6922F43C
:103B2000407215438A692A4342608461496841634F
:103B30000362F0BD0000014000040140F0B5026ADC
:103B400022F010020262026A436884690D6824F45C
:103B5000E64444EA05248D6822F0200242EA051278
:103B60000F4D104EA84201D0B04206D1CF6822F0CE
:103B7000800242EA071222F04002A84201D0B0427D
:103B800007D14D6923F4406343EA85038D6943EA15
:103B9000850343608461496881630262F0BD00006F
:103BA0000000014000040140F0B5026A22F4807276
:103BB0000262026A4368C46922F4007224F0730549
:103BC0000C68124E2C438D6842EA05220E4DA84225
:103BD00001D0B04206D1CF6822F4006242EA072247
:103BE00022F48062A84201D0B04207D14D6923F48B
:103BF000405343EA05138D6943EA05134360C461EA
:103C00004968C1630262F0BD000001400004014048
:103C100030B5026A22F480520262046A4268C369C3
:103C20000D6823F4E64343EA05238D6824F4005429
:103C300044EA0534084DA84202D0084DA84204D1F8
:103C40004D6922F4804242EA85124260C3614968AC
:103C50000164046230BD0000000001400004014026
:103C600010B5036A046A24F001040462846924F034
:103C7000F00444EA021423F00A020A438461026257
:103C800010BD10B5036A23F0100303628369046A50
:103C900023F4704343EA023224F0A00343EA011103
:103CA0008261016210BD000038B51F480068C0067F
:103CB00034D51E4801680A6849680091816B09681B
:103CC0000A681B4B12030A684FF4007422F00102C9
:103CD0000A60816B09684A68C2F5007292B21A8064
:103CE0004C60816B09680B680BD443F400230B60B4
:103CF000806B0068016841F0010101600D490E48C8
:103D00000AE023F400230B60806B0068016841F037
:103D1000010101600949084800F073F9BDE8384025
:103D20000248FEF71FBE0000007C0040FC0200209D
:103D30000C000020E84E0020E8520020E85000204F
:103D400010B5806B0021C185C184FEF709FE10BD4E
:103D500001680C3151E8002F22F4907241E80023F1
:103D6000002BF5D10168143151E8002F22F0010237
:103D700041E80023002BF5D1016B012909D101682D
:103D80000C3151E8002F22F0100241E80023002BF3
:103D9000F5D1202180F83E1000210163704708B55D
:103DA00090F83E10222901D0022008BD82684FF40D
:103DB00080539A4201D1016921B1816A9A421BD094
:103DC0004AB10AE00268816A5268C2F308020A80B6
:103DD000816A891C08E0026972B10268526802F0C7
:103DE0007F020A70816A491C8162C18D491E0904E3
:103DF000090CC18503D019E002685268F1E7016837
:103E0000CA6822F02002CA600168CA6822F480727F
:103E1000CA6001684A6922F001024A61202180F8E3
:103E20003E10016B012903D0FEF79AFF002008BD68
:103E30000021016301680C3151E8002F22F01002CB
:103E400041E80023002BF5D101680A68D20602D5AB
:103E50000A6849680091818DFEF781FDE6E7000060
:103E600070B5044600680169E26821F440511143CD
:103E700001612169A068E26908436169114308434F
:103E80002168CA6849F20C639A430243CA602068F9
:103E90004169A26921F440711143416131492068AF
:103EA000884202D03049884202D1FDF7C9FE01E0C4
:103EB000FDF7B6FEE2690023192164253226B2F52A
:103EC000004F626828D0A0FB0101930F9200FCF71D
:103ED000EBF90146B0FBF5F06FF01802504301EB2F
:103EE000800006EB0010B0FBF5F000F0F002B1FB33
:103EF000F5F002EB0012B1FBF5F06FF01803584338
:103F000001EB800006EB0010B0FBF5F000F00F00B5
:103F100021681044886070BDA0FB010192185B41CC
:103F2000FCF7C2F90146B0FBF5F00201B1FBF5F078
:103F30006FF01803584301EB800006EBC000B0FBA4
:103F4000F5F000F0F80002EB4002B1FBF5F0584349
:103F500001EB800006EBC000B0FBF5F000F00700BD
:103F6000D6E70000001001400014014010B500F039
:103F70006FFFBDE810400148FEF7F4BC400300208D
:103F8000FEE70907090E002804DB00F1E02080F8B5
:103F90000014704700F00F0000F1E02080F8141DBD
:103FA000704702E008C8121F08C1002AFAD1704702
:103FB0007047002001E001C1121F002AFBD17047A9
:103FC000EFF3108172B6436802699A4201D9026820
:103FD000026112F8013B02618268521C8260C26871
:103FE000521E81F31088C260184670478B185B1E02
:103FF0000160C0E901320022C0E90321416110469D
:1040000070472DE9F0475FEA01080546EFF3108697
:1040100072B62FD0AC686CB369686869884201D900
:1040200028686861944200DD14460F1A7F1CA7427D
:1040300006DB22464146FCF768F9686920440DE03A
:10404000A4EB07093A464146FCF75FF908EB070184
:104050004A462868FCF759F9286848446861A86806
:10406000001BA860E8682044E860204686F31088BA
:10407000BDE8F08786F310884FF0FF30F8E7C0689E
:104080007047000010B558B1084C491E0BD310F80A
:10409000013B5340DBB234F8133083EA1222F4E7D9
:1040A0004FF6FF7010BD104610BD0000A46400085C
:1040B00010B5054C04E000BF10F8013B5340E25C32
:1040C000491EF9D2104610BDA4630008004870478D
:1040D000184E0020F0B51F4C23685D6945F040057F
:1040E0005D612368DC6844F01004DC601A4B1C68D6
:1040F000256825F0010525601C682568ED07F7D1C6
:10410000164FFD14BC4202D9144E4C3E04E0144E2E
:10411000B44203D9114E503E356008E0104F104EA6
:10412000603FB83EBC4201D9F56000E0B5600D4D7E
:10413000A5601C68E0601868016118684260186832
:10414000016841F4802101601868016841F00101B3
:104150000160F0BDFC02002084030020586402408E
:10416000B8600240047C004070B51D4D00241D4E17
:10417000C5F815406C76C5F81A40AC7734607460A9
:104180003481B47205F8014B202106F10B00FCF7D5
:10419000D5F8AC60EC60A5F80540EC71A5F80340DB
:1041A0001B2106F12B00FCF7C9F8102106F146008F
:1041B000FCF7C4F8102106F15600FCF7BFF82C708C
:1041C0006C70AC706C622C8585F82A40C5F81E4076
:1041D0006C84C6F86640C6F86A40C6F86E4070BD8A
:1041E000AA000020764E0020FDF778FBFFF794FB35
:1041F000FEF73CFEFEF7FCFDFEF7B6FDFEF7D6FD32
:10420000FEF780FFFEF7ECFFFFF758F8FFF772F8B4
:104210000748FEF705F800210548FEF731FBFCF7DB
:104220006DFB00F015F8FEF709FE00F023F8FEE73D
:104230006C02002010B5EFF3058111B16FF0050499
:1042400003E0002408B101F065FA204610BD00002B
:10425000EFF3058010B16FF0050070470448016866
:1042600011B14FF0FF30704701210160002070470D
:104270007000002010B5EFF3058010B16FF005005D
:1042800010BD08480168012902D04FF0FF3010BD71
:10429000054A002182F8141D0221016001F0A2FAF2
:1042A000002010BD700000200BE000E02DE9FF4170
:1042B0004FEA01034FF00005EFF30581039549BB79
:1042C00040B38027182100244AB3166806B134464B
:1042D00096691EB13146761E382E02D21679F6073F
:1042E00003D0002004B0BDE8F081566906B1B708DC
:1042F000D2F808C0BCF1000F0DD0D5685C2D18D3E2
:1043000012693AB136B18DE806103A46214601F0FD
:1043100034FE03900DE0D6685EB912694AB903AA6B
:10432000CDE90012BAB2214601F0FAFD012800D011
:1043300003950398D6E700002DE9F041134C0F4692
:104340000546E6682068001D01F0B0F8681C07D13A
:1043500037B12168BDE8F0410D48091D01F0F6B8FC
:1043600020683544B5424560216805D2A06BBDE8A0
:10437000F041091D01F0D2B8606B091D01F0CEF8C3
:10438000A06A854200D2A562BDE8F081200000202D
:10439000340900202DE9F041054601F0E3F82D4CE9
:1043A000A068401CA06020682B4F10B1606930B33A
:1043B0002BE02560A068012827D1002606EB8600A7
:1043C00007EB800001F09CF8761C382EF6D32348CA
:1043D00001F096F82148143001F092F81F48283077
:1043E00001F08EF81D483C3001F08AF81B4850302F
:1043F00001F086F8194860631430A06305E0206876
:10440000E96AC06A884200D82560606A401C606220
:104410006864E86A2169884200D9206100EB800065
:1044200007EB8000291D01F091F801F0BBF86069ED
:1044300000280CD02068E96AC06A884207D208497F
:104440004FF080500860BFF34F8FBFF36F8FBDE810
:10445000F08100002000002084040020E4080020F7
:1044600004ED00E038B501F07DF8104C2068C8B9C3
:104470000F4801F045F80E48143001F041F80C489F
:10448000E060143020610A4B0020F03B009003F103
:10449000500210210A2001F0E5FA206010B105A1B8
:1044A00001F002F9BDE8384001F07CB85C00002062
:1044B000380A0020546D72510000000030B4026CC4
:1044C0000B46002A0BD0C1681144C1608468A14228
:1044D00001D30168C16030BC1846FBF716BF30BC81
:1044E00070472DE9F041856B174604460026026CA3
:1044F00082B1C7B1E068FBF708FFE168206C091AD8
:10450000E1602268914202D2A168081AE060022F9D
:1045100016D017E02068A8B9A06801F0D1FD0646C2
:104520000020A0600EE06068FBF7EFFE216C606881
:1045300008446060A168884204D32068606001E09C
:1045400005B16D1E6D1CA5633046BDE8F08110B548
:10455000044690F8590058B101280CD002280FD019
:10456000502080F31188BFF34F8FBFF36F8FFEE7AA
:10457000206B01F02BF82046BDE8104001F026B872
:1045800010BD000010484FF47051420706D0C01D06
:104590000D4920F00700411AC1F570510B4A002364
:1045A0000144C2E900030839183A21F007011160FB
:1045B0004B600B600B1AC0E9001393604FF0004092
:1045C0005360506170470000181100208C000020DB
:1045D000144E154CA6F29C474FF08058DFF84C90D3
:1045E00012E000BF00F0BEFFF068C568281D00F0B3
:1045F0005DFFA068401EA0606068401E606000F023
:10460000D1FF2846FFF7A3FF60680028EAD1386889
:104610000128F9D9C9F80080BFF34F8FBFF36F8F1E
:10462000F2E70000200900202000002004ED00E057
:1046300070B51D46049C51B1C4F80020C4E90F01B7
:104640000121204601F042FA84F84C5070BD2460EC
:10465000F4E700002DE9F05F8846DDE90B9415468C
:10466000834691009A460A9EA522206BFBF75FFEC7
:104670006FF00301206B01EB8501084420F0070770
:10468000780707D0502080F31188BFF34F8FBFF316
:104690006F8FFEE70025B8F1000F0FD05FF000002C
:1046A000221818F8001082F8341018F8001011B110
:1046B000401C1028F4D384F8435001E084F83450AF
:1046C000382E00D33726E662C4E91365201D00F0BA
:1046D00022FF04F1180000F01EFF2461C6F138002B
:1046E0006462A061656584F8585052465946384660
:1046F00000F05AFA2060B9F1000F01D0C9F800406B
:10470000BDE8F09F30B5114900E011460A688242C9
:10471000FBD34B685C18844203D14068184448605E
:10472000084643681C18944209D1084C183C246878
:10473000A24209D052681A4442600A6812680260B4
:10474000814200D0086030BD0460F9E78C00002091
:1047500070B5002441600B4D0061914206D8D11A1A
:104760008269914206D2011D286907E09A4203D26C
:10477000994201D3012403E0011DE86800F0CEFE58
:10478000204670BD5C00002010B5044600F0EAFE33
:10479000A06B28B15FF0000400F004FF204610BDBC
:1047A0000124F9E730B589B03C4D6EE0049800284B
:1047B00006DADDE90601059A90470498002864DBD3
:1047C000069C606910B1201D00F070FE03A800F087
:1047D000D7F8024604980A2857D2DFE800F005050A
:1047E000052D334A05052D3394F8280040F00100CB
:1047F00084F828000599A069059B01442046FFF72D
:10480000A7FF68B3216A2046884794F8280040072C
:104810003BD5002000900598A16900234218194655
:10482000204601F057FDD8B9502080F31188BFF31E
:104830004F8FBFF36F8FFEE714F8280F20F00100B1
:10484000207022E094F8280040F0010084F828004D
:104850000598A06128B1811813462046FFF778FF1C
:1048600013E0502080F31188BFF34F8FBFF36F8F99
:10487000FEE794F82800810703D4204600F0A6FE46
:1048800003E020F0010084F82800002204A9286831
:1048900001F070FA002889D109B030BD5C00002019
:1048A0002DE9FC410F46054600F0E0FF01A800F0AD
:1048B00067F80446019818B101F07AFCBDE8FC8164
:1048C000254EAFB130690068D0B30027291B3A46A6
:1048D000306800F0FDFE01F06BFC0028EED11F49AE
:1048E0004FF080500860BFF34F8FBFF36F8FE5E745
:1048F000A542EBD801F05CFCF0682746C068C468AC
:10490000201D00F0D3FD94F82800410719D5A069B7
:104910002B4641193A462046FFF71AFFA8B100205E
:104920000346014600902A46204601F0D3FC60B9B8
:10493000502080F31188BFF34F8FBFF36F8FFEE7D6
:1049400007E020F0010084F82800216A204688470B
:10495000B4E70127BAE700005C00002004ED00E0A6
:104960000648416B096829B1416BC968C968496843
:10497000816270474FF0FF31FAE70000200000200D
:1049800070B5054601F032FB064E0446B06884421D
:1049900003D200F009F8012000E000202860204642
:1049A000B46070BD5C000020F8B5194D20E0C0680F
:1049B000C4680668201D00F079FD216A20468847FA
:1049C00094F82800400713D5A0693044B04206D9B6
:1049D00024616060211DE86800F0A0FD08E000206F
:1049E0000346014600903246204601F073FC38B180
:1049F000E86801680029DAD12969C5E90310F8BD22
:104A0000502080F31188BFF34F8FBFF36F8FFEE705
:104A10005C00002008484068401C4FF0500080F3C4
:104A2000118804D0BFF34F8FBFF36F8FFEE7BFF342
:104A30004F8FBFF36F8FFEE794000020074CE068B4
:104A4000016841B1C0680021D0F80000FFF728FFDD
:104A5000FFF7A8FEF3E701210020F7E75C00002044
:104A60002DE9F041044600F07DFD94F9455004F134
:104A7000240609E0606A48B1304601F061FB08B1E4
:104A800000F076FE6D1E6DB2002DF3DC4FF0FF36A8
:104A900084F8456000F086FD00F064FD94F9445010
:104AA00004F1100709E0206948B1384601F048FBDD
:104AB00008B100F05DFE6D1E6DB2002DF3DC84F8D0
:104AC0004460BDE8F04100F06DBD00002DE9F0410B
:104AD0000546002700F0CAFE324E306808B9FFF7DD
:104AE00051FD706905424ED1C5B3083568070ED037
:104AF00005F00700C0F108000544680707D0502002
:104B000080F31188BFF34F8FBFF36F8FFEE72DB394
:104B10007068854237D82348183001460C6801E098
:104B200020460C466168A94202D221680029F7D1CB
:104B300031688C4227D007682168016060680837B7
:104B4000411B10290FD96019420708D0502080F36B
:104B50001188BFF34F8FBFF36F8FFEE713E0416003
:104B60006560FFF7CFFD61687068401A7060B268D9
:104B7000904200D2B060706901430020C4E9000196
:104B8000F068401CF06001F013FB780707D050205C
:104B900080F31188BFF34F8FBFF36F8FFEE7384666
:104BA000BDE8F0817400002010B5031F4FF0807441
:104BB0001C601B1F21F001011960191F044B0B60C1
:104BC00014390A60091F6FF0020244380A6010BDF0
:104BD000154A000800F022B978B40021ADF80010A1
:104BE0004B49026840F20225C1F8152002794A7645
:104BF000B0F80520ADF8002092B2464CA2F2022394
:104C0000AA4263D01BDCB2F5817F51D00ADC012AB5
:104C100033D0022A3BD0032A3CD0A2F58072013A5D
:104C20001AD140E0A2F58072033A46D0012A4AD058
:104C3000FE2A11D1C11D37481B222B304FE0052B16
:104C400056D00BDC012B46D0022B4BD0032B4CD083
:104C5000042B01D1C079C87078BC7047062B50D0A6
:104C6000072B1CD0FF2BF7D150F8071F44F8661F05
:104C7000416861608068A060EEE750F8071F21601E
:104C80004168616001892181807AA072E4E7C0797E
:104C90000870E1E7C11D1F4820220B301FE0D0F84B
:104CA0000720C1F81120D0F80700C1F80900D3E7A8
:104CB000D0F80700C1F80D00CEE7B0F80720CA8091
:104CC000407A0872C8E7B0F807001FE0C11D11481C
:104CD0001022463003E0C11D0E481022563078BC29
:104CE000FBF713BBC0794870B6E7C0798870B3E7AB
:104CF00050F8072F41F8252F82888A8080798871A3
:104D0000AAE750F8072F41F81F2F80888880A3E773
:104D1000AA000020764E002070B5A5263D4C002547
:104D200071E03D48FFF74CF994F8861006294BD204
:104D3000DFE801F003131D2D384DB0420AD10121E7
:104D400084F88610B4F88710A31D4A1CA4F88720A5
:104D5000C85458E0A4F8875055E0A080B4F88710F4
:104D6000A31D4A1CA4F88720C854022017E0A1887C
:104D7000A31D41EA0021A180B4F887104A1CA4F8C1
:104D80008720C854A08877281ED2032007E0B4F8F3
:104D90008710A31D4A1CA4F88720C854042084F857
:104DA000860030E0B4F88710A31D4A1CA4F88720C1
:104DB000C854B4F88700052825D10521A01D00F0AE
:104DC000ADFD08B10520EAE784F88650C2E7A28865
:104DD000B4F887100932914204D2A31D4A1CA4F8EA
:104DE0008720C854A188B4F88700093188420AD3C3
:104DF00084F88650A4F88750A01D00F071FD10B112
:104E0000A01DFFF7E9FE0448FFF739F9002888D113
:104E100070BD000000570020E8520020FFF7A4F901
:104E200009494FF48062A1F11800FFF7DFF8074944
:104E30004FF40072A1F50070FFF74CF9FFF76CFF1B
:104E40000A20FFF7F7F9F9E700530020E8500020A7
:104E5000264818B400680168890604D501684068CE
:104E6000009018BC704722490968C906F9D5016845
:104E70004068204A0090106801684FF024030C033A
:104E80001D49046824F00104046016D410684468C5
:104E9000C4F12404A4B20C8043601068016841F49A
:104EA000002101601068016841F001010160122CCD
:104EB000D7D1124901F1160015E014686068C0F1FD
:104EC000240080B2088063600D490B6823F400233E
:104ED0000B6011680A6842F001020A601228C0D112
:104EE000064901F13A0018BC00F014B84003002054
:104EF00000100140E4030020A8000020184E00200C
:104F00004064024002492422A1F12400FEF736BC8D
:104F1000524E0020F0B5002855D0002953D0027819
:104F2000437842EA0322C2F30A020A804378847873
:104F3000DB0843EA4413C3F30A034B808478C57843
:104F4000A40944EA8504057944EA8524C4F30A04E3
:104F50008C80057946796D0845EAC615C5F30A05C2
:104F6000CD804679C6F301168E724679B609CE72A7
:104F70008679C77946EA07268E81067A477A46EA15
:104F80000726CE81867AC77A46EA07260E82067BF6
:104F90008E74467BCE74867BC77B46EA07268E825C
:104FA000067C407CA2F580620A80A3F580634B807A
:104FB000A4F5806446EA00208C80A5F58065CD804C
:104FC000A0F580600881F0BD2DE9F047A74C2DEDDC
:104FD000048BA07801287DD1A5480568B5F90800A3
:104FE000002801DB064600E04642A0494FF4257345
:104FF0005F420A699F49F6EE000AB6F57A7F91EDA5
:105000003D0A00DB2AB1984201D0B84208D11AB15A
:1050100006E030EE600A01E030EE200A81ED3D0A44
:1050200091ED3D0A89469FED948AB5EEC00AF1EEF6
:1050300010FA01D889ED3D8AB5F904208B488F4ECE
:105040009FED8F9B4169D6F8F4009A4209D1A9B926
:10505000FBF737FB9FED8C1B53EC112BFBF779F91A
:1050600008E0BA420AD149B9FBF72BFB53EC192BE4
:10507000FBF710FAFBF738FBC6F8F400B5F902C0ED
:105080004FF4C8720127DFED820A784853429445F5
:105090008169804890ED3D0A00DD19B19C4509DA2F
:1050A00019B107E030EE200A01E030EE600A80ED31
:1050B0003D0AA7618046B0F82001012805D198ED8E
:1050C000410AB8EEC00A88ED3D0AB5F900C067484C
:1050D000714F00E0C5E0C169D7F8F400944500DDE8
:1050E00019B19C4512DA39B110E0FBF7EAFA53EC3A
:1050F000192BFBF72EF905E0FBF7E3FA53EC192B1C
:10510000FBF7C8F9FBF7F0FAC7F8F400298900208B
:1051100011B989ED398A2061698811B988ED398A18
:10512000A061A98811B986ED398A6061298811B911
:1051300087ED398AE0614F4C9FED588A84ED058AEE
:10514000DFED578A04F16400C4ED068A84ED1E8AFF
:10515000C4ED1F8A94ED400AD4ED3D0AB8EEC00AB2
:10516000FEF798F984ED3B0AF0EE400A94ED380A18
:105170002046FEF78FF994ED090ABDEEC00A10EE45
:10518000100AA4F8FC003D4C04F1640084ED058A8B
:10519000C4ED068A84ED1E8AC4ED1F8A94ED400A90
:1051A000D4ED3D0AB8EEC00AFEF774F984ED3B0A6F
:1051B000F0EE400A94ED380A2046FEF76BF994EDC4
:1051C000090ABDEEC00A10EE100A9FED360AA4F8D7
:1051D000FC00304C04F1640084ED050AC4ED068A3D
:1051E00084ED1E0AC4ED1F8A94ED410AD4ED3D0AF8
:1051F000B8EEC00AFEF74EF984ED3B0AF0EE400A25
:1052000094ED380A2046FEF745F994ED090ABDEE03
:10521000C00A10EE100AA4F8FC001F4C04F1640050
:1052200084ED058AC4ED068A84ED1E8AC4ED1F8ACA
:1052300094ED400AD4ED3D0AB8EEC00AFEF72AF913
:1052400084ED3B0AF0EE400A94ED380A2046FEF762
:1052500021F994ED090ABDEEC00A10EE100AA4F877
:10526000FC00BDEC048BBDE8F0870000D8000020F6
:105270007C5C00208C57002000000000C8580020F3
:105280007B14AE47E17A843FB81E85EB51B89E3F50
:1052900000007042045A0020405B00200060EA4693
:1052A0000000FA4400401C4670B5494D00202DED29
:1052B000028BA5F59E64C5F894000120A4F8220194
:1052C0009FED448AF0EE480ADFED438A434A00210D
:1052D000B0EE680A04F16400FEF716FA3F4AF0EEF9
:1052E000480AB0EE680A0C3A00212046FEF70CFA94
:1052F0003A4AF0EE480AB0EE680A1832002104F586
:10530000D070FEF701FA354AF0EE480AB0EE680AAE
:105310000C32002104F59E70FEF7F6F92F4AF0EEEC
:10532000480AB0EE680A3032002104F53770FEF703
:10533000EBF92A4AF0EE480AB0EE680A243200215E
:1053400004F51E70FEF7E0F9244AF0EE480AB0EECC
:10535000680A4832002104F58360FEF7D5F91F4A38
:10536000F0EE480AB0EE680A3C32002104F56D7098
:10537000FEF7CAF9FEF7AAFE286004F51E70184968
:105380009FED180AC0F8C81080ED4C0A80ED3D0A68
:10539000A0F59E701039C0F8C81080ED4C0A80ED61
:1053A0003D0A01F12000C4F8C80084ED4C0A04F560
:1053B0006D7084ED3D0A3031C0F8C81080ED4C0AA4
:1053C00080ED3D0ABDEC028BBDE87040FEF752BA9D
:1053D0007C5C002000401C450060EA46B066000886
:1053E000684D00200000000010B51449006800223C
:1053F0008B78C07A032B10D1022803D0CB78012BF5
:1054000002D009E00A6217E00B6A42F21074A3426C
:1054100002D25B1C0B6210BD0A62012808D003286F
:1054200008D0022808D0042088708878087110BD40
:105430008A70FAE70120F7E70220F5E7D80000209C
:105440001CB5C92000F066F9FFF72EFF144D134C70
:10545000A5F56D76A5F59E77A5F51E7840F2FF19A6
:10546000FEF7BCF90F48FFF7BFFF20786070FEF72A
:1054700001FAFFF7A9FDB5F9FC10B6F9FC00CDE97A
:105480000001B7F9FC30B8F9FC2049460648FBF7A3
:1054900083FA012000F03EF9E2E70000D800002086
:1054A000405B00207C5C0020FC000020D0E9013241
:1054B00001699A60D0E901235A604A68824201D1A9
:1054C00082684A60002202610868401E086008681D
:1054D00070470000034B036003F15C00086080200C
:1054E00010607047600A0020044B036003F15C0009
:1054F00008604FF48070106070470000BC0C002002
:1055000000F108014FF0FF32C0E90112C1600161F2
:1055100000210160704700210161704730B50B68C0
:105520005A1C02D000F1080202E0026904E022469F
:10553000546825689D42FAD953684B6099608A6027
:10554000516008610168491C016030BD42684A60D1
:1055500093688B6093685960916008610168491C89
:1055600001607047502080F31188BFF34F8FBFF365
:105570006F8F0A494868401C486001280CD10848D0
:10558000006810F0FF0F07D0502080F31188BFF3A0
:105590004F8FBFF36F8FFEE770470000940000202D
:1055A00004ED00E00849486828B1401E486001D178
:1055B00080F311887047502080F31188BFF34F8F1C
:1055C000BFF36F8FFEE700009400002070B5002845
:1055D0002AD0164DA0F1080460686969084207D115
:1055E000502080F31188BFF34F8FBFF36F8FFEE71A
:1055F00022683AB1502080F31188BFF34F8FBFF378
:105600006F8FFEE78843606000F030F9606869687A
:10561000084468602046FFF775F82869401C286137
:10562000BDE8704000F0C4BD70BD000074000020F3
:105630004FF0E02000210161816105494FF47A7249
:105640000968B1FBF2F1491E416107210161704710
:105650001C00002010B5FAF711FE114910280ED3D6
:1056600000F1E02090F8F0030A78904207D2502031
:1056700080F31188BFF34F8FBFF36F8FFEE70948A8
:105680000068896800F4E060884207D9502080F300
:105690001188BFF34F8FBFF36F8FFEE710BD00007F
:1056A000940000200CED00E010B5084B002200BF74
:1056B00053F832401CB1521C082AF9D310BD43F8EC
:1056C000321003EBC201486010BD0000440400200A
:1056D00070B515460E460446FFF744FF94F9441092
:1056E0000020491C01D184F8440094F94510491C5C
:1056F00001D184F84500FFF755FFA06B28B92A4671
:10570000314604F1240000F051F82046BDE8704015
:10571000FFF7A6B910B5020014D00F48006B38B1DE
:10572000502080F31188BFF34F8FBFF36F8FFEE7D8
:1057300000F09CF800211046FEF7FEFD00F038FD59
:10574000002807D105494FF080500860BFF34F8F04
:10575000BFF36F8F10BD00002000002004ED00E0BB
:1057600002490A6A0260C96841607047200000204F
:1057700001490120C86170472000002010B50C4687
:1057800050B1094909681831FFF7C8FE2046BDE845
:1057900010400121FEF7D0BD502080F31188BFF3E7
:1057A0004F8FBFF36F8FFEE72000002070B51446C7
:1057B0000D4668B10A4909681831FFF7C7FE0CB1F8
:1057C0004FF0FF3521462846BDE87040FEF7B4BDD6
:1057D000502080F31188BFF34F8FBFF36F8FFEE728
:1057E0002000002030B587B00024039405AA04A946
:1057F00003A80494FFF76EFEDDE903010094CDE9F0
:105800000110002315A11748059A00F0B6FB164DAC
:105810000028E8621FD000F02DFD012809D0401CAF
:1058200019D1502080F31188BFF34F8FBFF36F8FD2
:10583000FEE7502080F31188BFF34F8FBFF36F8FC7
:105840004FF0FF30A86201206861EC6007B0BDE84E
:10585000304000F077B807B030BD000049444C45F7
:1058600000000000D1450008200000200248016B24
:10587000491C01637047000020000020164810B545
:10588000016B11B10121C16110BD0021C16101692C
:10589000124A01E0B9B1491E01EB810352F82330ED
:1058A000002BF7D001EB810302EB830202F1080425
:1058B00053685B685360A34201D15B685360DA6848
:1058C0000260016110BD502080F31188BFF34F8F3B
:1058D000BFF36F8FFEE7000020000020840400204B
:1058E00030B50C46050014D0022C12D90A48A11E6E
:1058F00002882846FEF7C6FB2919C2B211F8023CFD
:105900009A4206D111F8011CB1EB102F01D10120F0
:1059100030BD002030BD0000D600002030B50C4660
:1059200005000CD0022C0AD9FF22611EFEF7C0FB35
:10593000291911F8011C814201D1012030BD00203C
:1059400030BD00001CB537480168374A914207D185
:10595000502080F31188BFF34F8FBFF36F8FFEE7A6
:1059600000683149491E884207D1502080F31188D0
:10597000BFF34F8FBFF36F8FFEE72C49087801907C
:10598000FF20087008788DF800009DF800009DF851
:10599000002000F0F000904207D0502080F31188E2
:1059A000BFF34F8FBFF36F8FFEE79DF80000204CD1
:1059B00000F0500020700720A06005E09DF8002056
:1059C00052008DF80020401E9DF800201206F5D4EC
:1059D000A060032807D0502080F31188BFF34F8FB9
:1059E000BFF36F8FFEE74FF44070A060019808701E
:1059F0000C482030016841F470010160016841F0F9
:105A000070410160FFF714FE00206060FAF7FEFBB2
:105A10000848016841F040410160FAF7E3FB0020CB
:105A20001CBD000000ED00E071C20F4100E400E089
:105A30009400002034EF00E010B5502080F311886E
:105A4000BFF34F8FBFF36F8F00F0D6FA18B1044940
:105A50004FF080500860002080F3118810BD0000D6
:105A600004ED00E038B5049D18B153B1CAB181B15D
:105A700020E0502080F31188BFF34F8FBFF36F8F6A
:105A8000FEE7502080F31188BFF34F8FBFF36F8F75
:105A9000FEE7502080F31188BFF34F8FBFF36F8F65
:105AA000FEE739B1502080F31188BFF34F8FBFF369
:105AB0006F8FFEE750241C46012384F846302B46A6
:105AC0000094FEF7B5FD204638BD000070B50D46C8
:105AD000040025D0FFF746FDD4E90F20216802FB22
